:020000040800F2
:100000000000022001740008516D0008536D0008C3
:10001000556D0008576D0008596D0008000000007C
:100020000000000000000000000000005B6D000800
:100030005D6D0008000000005F6D0008616D000844
:10004000517400085174000851740008517400087C
:10005000517400085174000851740008517400086C
:10006000517400085174000851740008517400085C
:10007000517400085174000851740008517400084C
:100080005174000851740008517400080000000009
:100090000000000000000000000000005174000893
:1000A000517400085174000851740008517400081C
:1000B000517400086D6D00085174000851740008F7
:1000C00051740008517400085174000851740008FC
:1000D00051740008517400085174000800000000B9
:1000E00051740008517400085174000800000000A9
:1000F0000000000000000000000000005174000833
:100100000000000051740008517400085174000888
:1001100000000000000000000000000000000000DF
:10012000517400085174000851740008517400089B
:1001300051740008000000000000000000000000F2
:100140000000000000000000000000007D6D0008BD
:10015000517400085174000851740008517400086B
:1001600051740008517400080000000000000000F5
:10017000000000000000000000000000000000007F
:1001800000000000517400080000000000000000A2
:080190005174000851740008CD
:1001C00010B5054C237833B9044B13B10448AFF391
:1001D00000800123237010BDE4090020000000000E
:1001E000ECC1000808B5034B1BB103490348AFF34A
:1001F000008008BD00000000E8090020ECC10008F4
:1002000053B94AB9002908BF00281CBF4FF0FF317D
:100210004FF0FF3000F072B9ADF1080C6DE904CE7B
:1002200000F006F8DDF804E0DDE9022304B07047D1
:100230002DE9F047089E04468846002B4BD18A42A0
:10024000154667D9B2FA82F24AB1C2F1200701FA23
:1002500002F320FA07F7954047EA030894404FEA73
:10026000154E230CB8FBFEF71FFA85FC0EFB178812
:1002700043EA084307FB0CF1994209D9EB1807F14F
:10028000FF3080F01B81994240F21881023F2B44DD
:100290005B1AA4B2B3FBFEF00EFB103344EA034436
:1002A00000FB0CFCA44509D92C1900F1FF3380F0A8
:1002B0000781A44540F2048102382C4440EA0740FB
:1002C000A4EB0C0400271EB1D4400023C6E9004370
:1002D0003946BDE8F0878B4209D9002E00F0EB804B
:1002E0000027C6E9000138463946BDE8F087B3FA71
:1002F00083F7002F47D18B4202D3824200F2FA806B
:10030000841A61EB030301209846002EE0D0C6E971
:100310000048DDE702B9FFDEB2FA82F2002A40F0BF
:100320008F80491B4FEA154E1FFA85F80127B1FB54
:10033000FEFC230C0EFB1C1143EA014308FB0CF1ED
:10034000994207D9EB180CF1FF3002D2994200F222
:10035000CD808446591AA3B2B1FBFEF00EFB1014F7
:1003600043EA044408FB00F8A04507D92C1900F122
:10037000FF3302D2A04500F2B6801846A4EB080471
:1003800040EA0C409FE7C7F1200CBB4022FA0CFE6C
:100390004EEA030E01FA07F420FA0CF521FA0CF3E9
:1003A0004FEA1E482543B3FBF8F92C0C08FB193320
:1003B0001FFA8EFA44EA034309FB0AF49C4202FA4C
:1003C00007F200FA07F10BD91EEB030309F1FF3026
:1003D00080F087809C4240F28480A9F10209734436
:1003E0001B1BADB2B3FBF8F008FB103345EA034426
:1003F00000FB0AFAA24508D91EEB040400F1FF3302
:100400006BD2A24569D90238744440EA0940A0FB86
:100410000289A4EB0A044C45C2464B4654D351D042
:10042000002E69D0B1EB0A0564EB030404FA0CFC5E
:10043000FD40FC404CEA0505C6E90054002747E7AB
:10044000C2F1200320FA03F7954001FA02F021FAE5
:1004500003F34FEA154E3843010CB3FBFEF71FFAC6
:1004600085F80EFB173341EA034107FB08F38B4283
:1004700004FA02F407D9691807F1FF3C2FD28B4226
:100480002DD9023F2944CB1A81B2B3FBFEF00EFBFB
:10049000103341EA034100FB08F38B4207D9691886
:1004A00000F1FF3C17D28B4215D902382944C91AF2
:1004B00040EA07473BE73746304609E70746E7E6A5
:1004C0001846FBE64145ABD2B8EB020A69EB0E02D7
:1004D00001381346A4E76046E9E7184695E7674602
:1004E000D1E781467CE702382C4447E7ACF1020CA7
:1004F0002B442FE7384608E73746E9E6704700BF48
:1005000090F800F06DE9024520F007016FF0000C53
:1005100010F0070491F820F040F049804FF00004FB
:100520006FF00700D1E9002391F840F000F10800D6
:1005300082FA4CF2A4FA8CF283FA4CF3A2FA8CF30E
:100540004BBBD1E9022382FA4CF200F10800A4FA75
:100550008CF283FA4CF3A2FA8CF3E3B9D1E90423C9
:1005600082FA4CF200F10800A4FA8CF283FA4CF300
:10057000A2FA8CF37BB9D1E9062301F1200182FABA
:100580004CF200F10800A4FA8CF283FA4CF3A2FAC0
:100590008CF3002BC6D0002A04BF04301A4612BACE
:1005A000B2FA82F2FDE8024500EBD2007047D1E9D1
:1005B000002304F00305C4F100004FEAC50514F060
:1005C000040F91F840F00CFA05F562EA05021CBF31
:1005D00063EA050362464FF00004A9E7000000004B
:1005E00001F0FF01102A2BDB10F0070F08D010F8E4
:1005F000013B013A8B422DD010F0070F42B3F6D1E8
:10060000F0B441EA012141EA014122F007047FF000
:1006100000070023F0E80256083C85EA010586EA57
:10062000010685FA47F5A3FA87F586FA47F6A5FA93
:1006300087F68EB9EED1F0BC01F0FF0102F007029F
:1006400032B110F8013B013A83EA010313B1F8D14A
:100650000020704701387047002D06BF354603382B
:10066000073815F0010F07D1013015F4807F02BF64
:10067000013015F4C03F0130F0BC0138704700BFB5
:10068000844641EA000313F003036DD1403A41D39D
:1006900051F8043B40F8043B51F8043B40F8043B5C
:1006A00051F8043B40F8043B51F8043B40F8043B4C
:1006B00051F8043B40F8043B51F8043B40F8043B3C
:1006C00051F8043B40F8043B51F8043B40F8043B2C
:1006D00051F8043B40F8043B51F8043B40F8043B1C
:1006E00051F8043B40F8043B51F8043B40F8043B0C
:1006F00051F8043B40F8043B51F8043B40F8043BFC
:1007000051F8043B40F8043B51F8043B40F8043BEB
:10071000403ABDD2303211D351F8043B40F8043B8B
:1007200051F8043B40F8043B51F8043B40F8043BCB
:1007300051F8043B40F8043B103AEDD20C3205D39B
:1007400051F8043B40F8043B043AF9D2043208D093
:10075000D2071CBF11F8013B00F8013B01D30B8805
:1007600003806046704700BF082A13D38B078DD0E3
:1007700010F003038AD0C3F10403D21ADB071CBFB5
:1007800011F8013B00F8013B80D331F8023B20F81F
:10079000023B7BE7043AD9D3013A11F8013B00F858
:1007A000013BF9D20B7803704B7843708B788370E0
:1007B0006046704781F0004102E000BF83F00043D3
:1007C00030B54FEA41044FEA430594EA050F08BFEC
:1007D00090EA020F1FBF54EA000C55EA020C7FEAB0
:1007E000645C7FEA655C00F0E2804FEA5454D4EB2D
:1007F0005555B8BF6D420CDD2C4480EA020281EAF7
:10080000030382EA000083EA010180EA020281EA2E
:100810000303362D88BF30BD11F0004F4FEA013180
:100820004FF4801C4CEA113102D0404261EB41018F
:1008300013F0004F4FEA03334CEA133302D0524215
:1008400063EB430394EA050F00F0A780A4F10104D1
:10085000D5F1200E0DDB02FA0EFC22FA05F280180B
:1008600041F1000103FA0EF2801843FA05F35941F1
:100870000EE0A5F120050EF1200E012A03FA0EFC70
:1008800028BF4CF0020C43FA05F3C01851EBE3719A
:1008900001F0004507D54FF0000EDCF1000C7EEBB7
:1008A00000006EEB0101B1F5801F1BD3B1F5001FF5
:1008B0000CD349085FEA30004FEA3C0C04F1010414
:1008C0004FEA445212F5800F80F09A80BCF1004F3D
:1008D00008BF5FEA500C50F1000041EB045141EABF
:1008E000050130BD5FEA4C0C404141EB010111F4C0
:1008F000801FA4F10104E9D191F0000F04BF01466B
:100900000020B1FA81F308BF2033A3F10B03B3F148
:1009100020020CDA0C3208DD02F1140CC2F10C02D8
:1009200001FA0CF021FA02F10CE002F11402D8BF36
:10093000C2F1200C01FA02F120FA0CFCDCBF41EA02
:100940000C019040E41AA2BF01EB0451294330BDD1
:100950006FEA04041F3C1CDA0C340EDC04F11404AE
:10096000C4F1200220FA04F001FA02F340EA030085
:1009700021FA04F345EA030130BDC4F10C04C4F1CB
:10098000200220FA02F001FA04F340EA03002946AB
:1009900030BD21FA04F0294630BD94F0000F83F4F5
:1009A000801306BF81F480110134013D4EE77FEAD8
:1009B000645C18BF7FEA655C29D094EA050F08BF24
:1009C00090EA020F05D054EA000C04BF1946104605
:1009D00030BD91EA030F1EBF0021002030BD5FEA49
:1009E000545C05D14000494128BF41F0004130BD71
:1009F00014F580043CBF01F5801130BD01F00045C5
:100A000045F0FE4141F470014FF0000030BD7FEA37
:100A1000645C1ABF194610467FEA655C1CBF0B4632
:100A2000024650EA013406BF52EA033591EA030F49
:100A300041F4002130BD00BF90F0000F04BF002141
:100A4000704730B54FF4806404F132044FF0000574
:100A50004FF0000150E700BF90F0000F04BF0021ED
:100A6000704730B54FF4806404F1320410F0004553
:100A700048BF40424FF000013EE700BF42004FEA4E
:100A8000E2014FEA31014FEA02701FBF12F07F43CB
:100A900093F07F4F81F06051704732F07F4208BF82
:100AA000704793F07F4F04BF41F40021704730B589
:100AB0004FF4607401F0004521F000411CE700BFD5
:100AC00050EA010208BF704730B54FF000050AE058
:100AD00050EA010208BF704730B511F0004502D559
:100AE000404261EB41014FF4806404F132045FEA5B
:100AF000915C3FF4D8AE4FF003025FEADC0C18BF04
:100B000003325FEADC0C18BF033202EBDC02C2F1F5
:100B1000200300FA03FC20FA02F001FA03FE40EA87
:100B20000E0021FA02F11444BDE600BF70B54FF08B
:100B3000FF0C4CF4E06C1CEA11541DBF1CEA135569
:100B400094EA0C0F95EA0C0F00F0DEF82C4481EAD1
:100B5000030621EA4C5123EA4C5350EA013518BFF1
:100B600052EA033541F4801143F4801338D0A0FBDE
:100B700002CE4FF00005E1FB02E506F00042E0FB8B
:100B800003E54FF00006E1FB03569CF0000F18BF91
:100B90004EF0010EA4F1FF04B6F5007F64F5407439
:100BA00004D25FEA4E0E6D4146EB060642EAC621CC
:100BB00041EA55514FEAC52040EA5E504FEACE2E39
:100BC000B4F1FD0C88BFBCF5E06F1ED8BEF1004F3C
:100BD00008BF5FEA500E50F1000041EB045170BDB8
:100BE00006F0004646EA010140EA020081EA0301FC
:100BF000B4EB5C04C2BFD4EB0C0541EA045170BDF8
:100C000041F480114FF0000E013C00F3AB8014F171
:100C1000360FDEBF002001F0004170BDC4F10004BA
:100C2000203C35DA0C341BDC04F11404C4F120053B
:100C300000FA05F320FA04F001FA05F240EA020096
:100C400001F0004221F0004110EBD37021FA04F6CC
:100C500042EB06015EEA430E08BF20EAD37070BD86
:100C6000C4F10C04C4F1200500FA04F320FA05F0E5
:100C700001FA04F240EA020001F0004110EBD370E7
:100C800041F100015EEA430E08BF20EAD37070BD57
:100C9000C4F1200500FA05F24EEA020E20FA04F330
:100CA00001FA05F243EA020321FA04F001F00041DF
:100CB00021FA04F220EA020000EBD3705EEA430E50
:100CC00008BF20EAD37070BD94F0000F0FD101F07F
:100CD0000046400041EB010111F4801F08BF013CB8
:100CE000F7D041EA060195F0000F18BF704703F0F6
:100CF0000046520043EB030313F4801F08BF013D7D
:100D0000F7D043EA0603704794EA0C0F0CEA135538
:100D100018BF95EA0C0F0CD050EA410618BF52EAF2
:100D20004306D1D181EA030101F000414FF00000F8
:100D300070BD50EA410606BF1046194652EA430606
:100D400019D094EA0C0F02D150EA013613D195EA7A
:100D50000C0F05D152EA03361CBF104619460AD1C2
:100D600081EA030101F0004141F0FE4141F47001CC
:100D70004FF0000070BD41F0FE4141F4780170BDBC
:100D800070B54FF0FF0C4CF4E06C1CEA11541DBF21
:100D90001CEA135594EA0C0F95EA0C0F00F0A7F823
:100DA000A4EB050481EA030E52EA03354FEA013150
:100DB00000F088804FEA03334FF0805545EA131363
:100DC00043EA12634FEA022245EA111545EA10652B
:100DD0004FEA00260EF000419D4208BF964244F1C2
:100DE000FD0404F5407402D25B084FEA3202B61AE1
:100DF00065EB03055B084FEA32024FF480104FF4B5
:100E0000002CB6EB020E75EB030E22BFB61A754628
:100E100040EA0C005B084FEA3202B6EB020E75EBBB
:100E2000030E22BFB61A754640EA5C005B084FEA23
:100E30003202B6EB020E75EB030E22BFB61A7546F0
:100E400040EA9C005B084FEA3202B6EB020E75EBFB
:100E5000030E22BFB61A754640EADC0055EA060EBC
:100E600018D04FEA051545EA16754FEA06164FEAFF
:100E7000C30343EA52734FEAC2025FEA1C1CC0D1AB
:100E800011F4801F0BD141EA00014FF000004FF038
:100E9000004CB6E711F4801F04BF01430020B4F1F9
:100EA000FD0C88BFBCF5E06F3FF6AFAEB5EB030CB1
:100EB00004BFB6EB020C5FEA500C50F1000041EBAE
:100EC000045170BD0EF0004E4EEA113114EB5C047B
:100ED000C2BFD4EB0C0541EA045170BD41F480114E
:100EE0004FF0000E013C90E645EA060E8DE60CEA56
:100EF000135594EA0C0F08BF95EA0C0F3FF43BAF73
:100F000094EA0C0F0AD150EA01347FF434AF95EA29
:100F10000C0F7FF425AF104619462CE795EA0C0F0D
:100F200006D152EA03353FF4FDAE1046194622E7DA
:100F300050EA410618BF52EA43067FF4C5AE50EAB4
:100F400041047FF40DAF52EA43057FF4EBAE12E7A4
:100F50004FF0FF3C06E000BF4FF0010C02E000BF85
:100F60004FF0010C4DF804CD4FEA410C7FEA6C5C68
:100F70004FEA430C18BF7FEA6C5C1BD001B050EA0B
:100F8000410C0CBF52EA430C91EA030F02BF90EAF6
:100F9000020F0020704710F1000F91EA030F58BFB5
:100FA000994208BF90422CBFD8176FEAE37040F017
:100FB000010070474FEA410C7FEA6C5C02D150EAB5
:100FC000013C07D14FEA430C7FEA6C5CD6D152EA70
:100FD000033CD3D05DF8040B704700BF8446104635
:100FE00062468C461946634600E000BF01B5FFF734
:100FF000B7FF002848BF10F1000F01BD4DF808ED04
:10100000FFF7F4FF0CBF012000205DF808FB00BFD4
:101010004DF808EDFFF7EAFF34BF012000205DF82E
:1010200008FB00BF4DF808EDFFF7E0FF94BF01207B
:1010300000205DF808FB00BF4DF808EDFFF7CEFF7C
:1010400094BF012000205DF808FB00BF4DF808EDBB
:10105000FFF7C4FF34BF012000205DF808FB00BF8C
:101060004FEA410C7FEA6C5C02D150EA013C0AD1A4
:101070004FEA430C7FEA6C5C02D152EA033C02D196
:101080004FF0000070474FF0010070474FEA4102F7
:1010900012F5001215D211D56FF47873B3EB6252CA
:1010A00012D94FEAC12343F0004343EA505311F0F1
:1010B000004F23FA02F018BF404270474FF0000083
:1010C000704750EA013005D111F0004008BF6FF0C1
:1010D000004070474FF00000704700BF10B5044655
:1010E0000E4B18784FF47A73B3FBF0F30C4A106888
:1010F000B0FBF3F000F0E6F868B90F2C01D901203D
:101100000AE0002221464FF0FF3000F069F8034B5F
:101110005C60002000E0012010BD00BF0000002046
:101120002800002008B50B4B1A6842F400721A60C0
:101130001A6842F480621A601A6842F480721A6077
:10114000032000F02FF80020FFF7C8FF05F0B6FDE0
:10115000002008BD003C0240034A1168034B1B7885
:101160000B441360704700BFE80A00200000002015
:10117000014B1868704700BFE80A002038B50446E4
:10118000FFF7F6FF0546B4F1FF3F02D0044B1B7892
:101190001C44FFF7EDFF401BA042FAD338BD00BF4F
:1011A0000000002010B50446C31E042B0FD80A4AC5
:1011B000D36823F4E0631B041B0C240204F4E064F2
:1011C000234343F0BF6343F40033D36010BDA22137
:1011D000024805F025FDEAE700ED00E020C2000826
:1011E00070B505460C4616460F2A25D80F2C28D870
:1011F0001B4BDB68C3F30223C3F10702042A28BF99
:101200000422191D062921D9033B4FF0FF3101FAB1
:1012100002F224EA02049C4001FA03F326EA0306E0
:101220003443002D14DB2401E4B205F1604505F5DB
:10123000614585F8004370BDBA210A4805F0F0FC0D
:10124000D4E7BB21074805F0EBFCD1E70023DCE73E
:1012500005F00F052401E4B2034B5C55EBE700BF3A
:1012600000ED00E020C2000814ED00E010B5041EFF
:1012700008DB04F01F02640901239340044A42F88A
:10128000243010BDCE21034805F0CAFCF1E700BFB1
:1012900000E100E020C2000810B5041E09DB04F0E4
:1012A0001F026409012393402034044A42F8243089
:1012B00010BDDE21024805F0B3FCF0E700E100E0DC
:1012C00020C200080138B0F1807F0AD2064B586076
:1012D000064AF02182F823100020986007221A6045
:1012E00070470120704700BF10E000E000ED00E013
:1012F00010B50446042800D038B9042C0BD0094A94
:10130000136823F00403136010BD40F2D91106489E
:1013100005F086FCF1E7034A136843F00403136009
:10132000F2E700BF10E000E020C20008704708B5F7
:10133000FFF7FCFF08BD00002DE9F04782B08046B2
:101340000E46A44B984217D003F58063984213D001
:1013500003F5806398420FD003F5806398420BD069
:1013600003F58063984207D003F54063984203D0A9
:10137000C321994805F054FC33689AB212B11B0C92
:101380001B041BB1C421944805F04AFC7368012B6F
:101390001ED9112B1CD0022B1AD0122B18D08F4A19
:1013A000934215D002F58012934211D002F58012BB
:1013B00093420DD0A2F5F812934209D002F58012A3
:1013C000934205D002F58012934201D0032B04D141
:1013D000B368022B06D8002445E0C5217E4805F0FD
:1013E0001FFCF5E7C6217C4805F01AFCF3E7EA216B
:1013F000794805F015FC90E0042300E000238B40C1
:1014000003430232764941F82230764B1A68FB4397
:1014100003EA0201706810F4803F01D047EA02013C
:10142000704A1160526803EA0201706810F4003FCC
:1014300001D047EA02016B4A5160926803EA020157
:10144000706810F4801F01D047EA0201654A91607C
:10145000D2681340716811F4001F01D047EA0203FB
:10146000604AD36001340F2C00F2B0800125A54002
:1014700037682F40BD42F5D17368022B01D0122B83
:101480002BD13369CBB1092B17D0012B15D0022BEF
:1014900013D0042B11D0052B0FD0062B0DD0072B0A
:1014A0000BD0082B09D00A2B07D00C2B05D00F2B03
:1014B00003D0D721484805F0B3FBE208083258F8BA
:1014C000220004F0070399000F238B4020EA030059
:1014D00033698B40034348F82230D8F800204FEAA4
:1014E000440A4FF0030909FA0AF96FEA090909EAFF
:1014F0000202736803F0030303FA0AF31343C8F804
:10150000003073685A1E012A03D9112B01D0122B07
:1015100018D1F368032B3FF66AAFD8F8082009EA20
:101520000202F36803FA0AF31343C8F80830D8F844
:10153000042022EA05027368C3F30015A540154391
:10154000C8F80450D8F80C3009EA0309B36803FA64
:101550000AF343EA0903C8F80C30736813F0805F9C
:1015600080D000230193204B5A6C42F480425A648D
:101570005B6C03F480430193019BA208911C184B00
:1015800053F8210004F0030399000F238B4020EA55
:101590000300104B98453FF431AF03F58063984545
:1015A0000ED003F5806398450CD003F58063984511
:1015B0000AD003F5806398453FF41EAF07231EE76A
:1015C00001231CE702231AE7032318E702B0BDE852
:1015D000F08700BF000002405CC20008000011104C
:1015E00000380140003C01400038024038B5054653
:1015F0000C4621B12B691C4207D1002038BD4FF4A5
:10160000C771034805F00CFBF4E70120F6E700BFC3
:101610005CC2000870B5064615460C4629B1012D7E
:1016200009D875B92404B46170BD40F2AF11064801
:1016300005F0F6FAF3E74FF4D871034805F0F0FA35
:10164000EFE7B461F0E700BF5CC20008F8B50668D8
:10165000346A04F00F07C4F34343C4F30A14022BA3
:101660002ED16CB307EB8702D3000344596C39B316
:1016700005462246304603F0A5FEBA003A44D300A0
:101680002B445A6C22445A64DA6C2244DA6406EB26
:101690004713D3F810150B4A0A408AB1D3F8002536
:1016A00022F0804242F00042C3F80025BB00D91965
:1016B000CA002A4492F8503083F0010382F8503077
:1016C000F8BD00BF0000F81FF0B585B09DF8286098
:1016D0009DF82C70BDF830C090F89042012C2AD0B3
:1016E0000546012085F89002880000EB010E4FEAC4
:1016F000CE042C4484F83830A4F840C084F8391063
:1017000084F83F7002F07F0E84F83AE04FEAD21E70
:1017100084F83BE00844C4002C4484F83C60CDF8D5
:1017200008C001970096286803F042FF002385F85F
:10173000903205B0F0BD0220FBE790F89032012B0B
:101740000BD010B50446012380F89032006804F0F5
:10175000E8F8002084F8900210BD022070470000D5
:10176000002840D0F0B58BB006460368B3F1A04F17
:1017700003D08A211D4805F053FA032386F89132DD
:10178000304605F01FFD306803F0C6FD344654F8BE
:1017900010CB6D460FCC0FC50FCC0FC594E80300DE
:1017A00085E80300371D97E80E00604603F070FDE2
:1017B0000121306803F0B6FD344654F810CB6D4675
:1017C0000FCC0FC50FCC0FC594E8030085E80300CC
:1017D00097E80E00604603F02FFE012386F8913251
:1017E00000200BB0F0BD0120704700BF98C2000878
:1017F000F8B59DF81870BDF820609DF824C08D00E4
:101800000D44EC00044484F83B2084F83F306FB969
:1018100001EB8105EC000444032584F84250032BBE
:1018200000F2B380DFE803F00AAA3E7B01EB8105FA
:10183000EC000444022584F84250F0E7012F40F008
:10184000A480002A40F0A18036B901EB8102D300C8
:101850000344012283F8512001EB8102D3000344A9
:1018600093F85130B3B901EB8102D3000344002255
:1018700083F8422001EB8102D300034493F85C30EB
:10188000022B00F0828001EB8102D300034483F835
:101890003DC07AE001EB8102D3000344022283F8C9
:1018A0004220E7E722BB01EB8102D300034493F817
:1018B0005130ABB901EB8102D3000344002283F81D
:1018C000422001EB8102D300034493F85C30022BE9
:1018D0005BD001EB8102D300034483F83DC054E0A8
:1018E00001EB8102D3000344022283F84220E8E79F
:1018F00001EB8102D300034493F850303BB901EB74
:101900008102D3000344002283F842203DE001EB32
:101910008102D3000344022283F8422035E0B2B9A9
:1019200001EB8102D300034493F851303BB901EB42
:101930008102D3000344002283F8422025E001EB1A
:101940008102D3000344022283F842201DE001EB10
:101950008102D300034493F850303BB901EB81027C
:10196000D3000344002283F842200EE001EB810201
:10197000D3000344022283F8422006E001EB8102F7
:10198000D3000344002283F842208A005418E30065
:101990000344079C5C649E64002483F85C40DC6420
:1019A00083F8391083F85D401144CB0003F138010E
:1019B000027C0144006803F06BFEF8BD30B583B0D3
:1019C00005460468D4F840340193D4F840340093B9
:1019D000009B23F02E030093019B13F0020F07D00E
:1019E000019B13F0010F25D1009B43F002030093EC
:1019F000019B13F0080F10D0009B43F008030093E5
:101A0000019B13F0040F31D0AB69022B19D0EB68A6
:101A1000032B26D0284605F019FC019B13F0200F5C
:101A200003D0009B43F020030093009BC4F8403494
:101A300003B030BDA36923F00053A36105F006FC99
:101A4000D2E7019B03F4C023B3F5802F04D001211A
:101A5000286803F067FDDDE70221286803F062FDD6
:101A6000D8E74EF66022C4F80424D3E7D4F8403413
:101A700023F02E03C4F840342A68936943F00053DE
:101A80009361CAE7F8B506460D46076807EB4117AC
:101A900007F5A064A36813F0040F41D00423A360EA
:101AA000E36843F00203E360A36813F4007F6DD1A1
:101AB000A36813F0010F00F08A80336963B1AB00B3
:101AC0005919CA003244916C2269C2F31202891A70
:101AD0002B44DA003244D164AA002A44D3003344B0
:101AE000012283F85D2000219965A26093F83F30C0
:101AF000002B57D0022B55D0032B5DD1D7F80035E2
:101B000043F00053C7F8003505EB8502D30033449A
:101B1000012283F85C202946304605F0A3FB4BE008
:101B2000A36813F0200F02D02023A360BCE7A368B2
:101B300013F0080F17D1A36813F4806FB4D0E368D3
:101B400043F00203E360006803F0EBFE1023A360A0
:101B500005EB8502D3003344082283F85D204FF45F
:101B60008063A360A0E7E36843F00203E36001EB56
:101B70008102D3000344052283F85D201023A36073
:101B80000823A360006803F0CCFE8DE7E36843F010
:101B90000203E3602946306803F0C3FE4FF400738C
:101BA000A36013E0E36843F00203E3602946306872
:101BB00003F0B7FE1023A360AB005919CA003244EA
:101BC00092F8503083F0010382F85030F8BDA368DA
:101BD00013F0020F50D0E36823F00203E36005EB3B
:101BE0008502D300334493F85D30012B20D0052BC0
:101BF00032D0062B01D0082B21D1AA002A44D300D1
:101C000033449A6D511C9965032A2DD9AA002A44A0
:101C1000D300334400229A65042283F85C20D7F86D
:101C2000003523F0804343F00043C7F8003506E059
:101C300005EB8502D3003344012283F85C200223A4
:101C4000A36005EB8502D300334493F85C2029465A
:101C5000304605F007FBB9E705EB8502D3003344B6
:101C6000052283F85C20EAE705EB8502D3003344C4
:101C7000022283F85C20D2E7A36813F0800F26D1FC
:101C8000A36813F0100FA1D005EB8502D3003344F5
:101C900093F83F30032B32D0AB005919CA003244BD
:101CA000032182F85D101022A2601D4405FA01F3A1
:101CB0001E4496F83F300BB1022B87D1D7F8003580
:101CC00023F0804343F00043C7F800357EE7E36824
:101CD00043F00203E360AB005919CA003244916D2E
:101CE000013191652B44DA003244062382F85D30DD
:101CF0002946306803F015FE8023A36066E7E36899
:101D000043F00203E3602946306803F00AFEC3E7AC
:101D1000F8B5046804EB411404F5A064A36813F05B
:101D2000040F24D10E460546A36813F0200F25D0DA
:101D30002023A36001EB8102D300034493F83D30DC
:101D4000012B1AD18F007A18D3000344042283F8A0
:101D50005D20E36843F00203E360006803F0E1FD07
:101D6000B919C8002844022380F85C3005E0042338
:101D7000A360E36843F00203E360F8BDA36813F0D7
:101D8000400F4CD1A36813F4007F5FD1A36813F018
:101D9000010F66D1A36813F0080F77D1A36813F081
:101DA000100F40F08480A36813F0800F40F09580FE
:101DB000A36813F4806F40F0A180A36813F0020FB2
:101DC000DBD0E36823F00203E36001EB8102D30080
:101DD000034493F85D30012B00F0A480032B00F046
:101DE000C480042B00F0C980052B00F0D180062BA5
:101DF00002D0082B40F0A180B2003244D3002B4423
:101E00009A6D511C9965032A40F2CA80282303FB6E
:101E1000065300229A65042283F85C208DE08B0033
:101E20005918CA000244042182F85D103344DA00D4
:101E3000024400239365E36843F00203E360314604
:101E4000006803F06EFD4023A36096E7E36843F06B
:101E50000203E360006803F064FD4FF40073A360C5
:101E60008BE78F007A18D300034400229A65E36859
:101E700043F00203E360006803F053FD0123A36015
:101E8000B919C800284480F85D3076E70823A360BC
:101E9000E36843F00203E360006803F042FD06EBF1
:101EA0008601C8002844052380F85D3065E78F006F
:101EB0007A18D300034400229A65E36843F00203D2
:101EC000E360006803F02DFDB919C800284403231E
:101ED00080F85D301023A3604FE7E36843F002030E
:101EE000E360006803F01DFD06EB8601CB002B4488
:101EF000062283F85D208023A3603EE7E36843F079
:101F00000203E360006803F00CFD1023A3604FF4AC
:101F10008063A36006EB8601CB002B44082283F884
:101F20005D202AE78A000A44D3000344012283F893
:101F30005C2093F83F30022B0CD00223A36006EB09
:101F40008602D3002B4493F85C203146284605F0E6
:101F500089F912E78A000A44D300034493F8512018
:101F600082F0010283F85120E7E701EB8102D30000
:101F70000344022283F85C20DFE78A000A44D3008E
:101F80000344022283F85C20002283F83D20D4E73A
:101F900001EB8102D3000344052283F85C20CCE7E7
:101FA000282303FB0653022283F85C20C5E7F8B51B
:101FB00004460568284603F01DFA012800D0F8BD44
:101FC000206803F013FA0028F9D0206803F00EFA15
:101FD00010F4001F03D023684FF400125A612068E8
:101FE00003F004FA10F4801F03D023684FF480122A
:101FF0005A61206803F0FAF910F0806F03D023686B
:102000004FF080625A61206803F0F0F910F0020F7F
:1020100002D0236802225A61206803F0E7F910F029
:10202000005F25D1206803F0E1F910F0807F31D105
:10203000206803F0DBF910F0080F2FD1206803F0BF
:10204000D5F910F0007F30D1206803F0CFF910F0FF
:10205000100FB4D02268936923F0100393612046D7
:10206000FFF7F4FA2268936943F010039361A6E73F
:10207000D5F8403423F02E03C5F84034204605F04F
:10208000EBF80121206803F04DFA23684FF000526D
:102090005A61C7E72046FFF791FCC9E7204605F0E3
:1020A000CFF8236808225A61C8E7206803F02AFCA9
:1020B0000746002604E0F1B22046FFF729FE01366C
:1020C000A368B3420FD90123B3403B42F7D005EBDD
:1020D0004613D3F8003513F4004FECD0F1B220468C
:1020E000FFF7D0FCEBE723684FF000725A61ABE7D3
:1020F00038B590F89032012B0ED00446012580F8B7
:102100009052006803F002F92946206803F02AFA89
:10211000002084F8900238BD0220FCE790F890324D
:10212000012B0BD010B50446012380F890320068D3
:1021300003F012FD002084F8900210BD02207047C9
:1021400001EB8101CB00184490F85C00704701EB73
:102150008101CB001844C06C704708B5006803F0DB
:1021600022FA08BD002800F0EB8010B50446036891
:10217000744A93420CD002F58062934208D002F573
:102180008062934204D04FF4B7716F4804F048FD69
:102190006368013B6D4A934267D8A36813B1B3F5F6
:1021A000804F68D1E36823F47F7323F00303002B8F
:1021B00067D12369B3F5804F02D0B3F5404F66D1A4
:1021C0006369012B69D8A36933F0FE036BD1E3691E
:1021D0000BB1402B6DD1236A0BB1802B6FD194F8DA
:1021E0003D30002B71D0242384F83D3022681368E1
:1021F00023F00103136001F013F8554BA3FB0023F8
:102200009B0C226853606168524A914263D8013343
:102210002268136263684F4A934266D85B00B0FB42
:10222000F3F0C0F30B03032B00D804202368D8611C
:10223000E369216A22680B4313602369E16822681D
:102240000B4393606369A16922680B43D3602268E2
:10225000136843F00103136000202064202384F8F6
:102260003D30206384F83E0010BD40F26F113648C7
:1022700004F0D6FC91E74FF4B871334804F0D0FC79
:1022800090E740F27111304804F0CAFC91E74FF436
:10229000B9712D4804F0C4FC92E740F273112A484A
:1022A00004F0BEFC8FE74FF4BA71274804F0B8FC85
:1022B0008DE740F27511244804F0B2FC8BE74FF42F
:1022C000BB71214804F0ACFC89E784F83C3020461F
:1022D00004F00AFA87E74FF4967202FB03F31E4AF2
:1022E000A2FB03239B09013392E7A16889B903EBA1
:1022F0004302B0FBF2F2C2F30B02B2FA82F25209CD
:10230000E2B991B903EB4303B0FBF3F040F40040B2
:102310008CE703EB830202EB8202B0FBF2F2C2F322
:102320000B02B2FA82F25209EAE703EB830303EBF2
:102330008303B0FBF3F040F4404077E7012075E7FA
:102340000120704700540040D0C200087F1A0600E8
:1023500083DE1B43A0860100D34D6210704708B591
:10236000436A9A1C426202681B88D360438D013B1A
:102370009BB24385438D9BB203B108BD026853688D
:1023800023F0A0031B041B0C5360012380F8413091
:10239000FFF7E4FFF1E7704708B50368DA68C36A3E
:1023A000991CC1621A80438E013B9BB24386438EC7
:1023B0009BB203B108BD0268536823F060031B049D
:1023C0001B0C5360012380F84130FFF7E4FFF1E775
:1023D00070470000002800F0328170B504460368A1
:1023E000984A934213D0A2F5784293420FD002F557
:1023F000806293420BD002F57842934207D002F5F7
:10240000E052934203D0E3218F4804F009FC636853
:102410004BB1B3F5807F06D0B3F5007F03D0B3F5A1
:10242000407F40F08280A3683BB1102B05D0202B69
:1024300003D0302B01D0B02B7CD1E368012B03D922
:10244000032B01D0052B7AD12369B3F5007F01D08E
:10245000002B79D16369A3F5FA517C4A914201D9E5
:10246000022B76D1A3690BB1082B77D1E369012B3D
:1024700079D8022584F84150754B6363204604F0F7
:10248000A1F92268D36923F47B6323F00F03D3619E
:1024900023681D622368DD696369022B00F0828076
:1024A000E368002B64D02026A368202B00D8760098
:1024B000012001F02BF82369B3F5007F5AD0B0FB5F
:1024C000F6F000EB800043006269B3FBF2F30533E2
:1024D000604AA2FB0323DB0803F001029B1AC3F34B
:1024E0004F0311029A1EFD2A5ED822690A43216811
:1024F00013430B626268A168E068238B03439BB2BD
:102500000B439BB213439BB243F400631D43236808
:10251000DD61236A012B50D8236A012B53D00020A0
:102520006064012384F8413070BDE421464804F022
:1025300077FB78E7E521444804F072FB7DE7E6216C
:10254000414804F06DFB7FE7E7213F4804F068FB5A
:1025500080E7E8213C4804F063FB83E7E9213A483F
:1025600004F05EFB82E7EA21374804F059FB80E77C
:10257000102699E7E36853B1B600B0FBF6F000EB24
:10258000800043006269B3FBF2F30533A0E7F60075
:10259000B0FBF6F000EB800043006269B3FBF2F39E
:1025A000053395E700219DE7636C43F010036364F6
:1025B0002046FFF70DFF0120B6E74FF4B671224821
:1025C00004F02EFBA8E7244B63632268234B9A4256
:1025D0001ED04FF04022D36923F47B6323F00F0316
:1025E000D36122681D4B9A4214D04FF0402202233F
:1025F00013622268194B9A420ED04FF04022D069E4
:102600006168B1F5007F09D0B9B94FF4807607E071
:10261000134AE0E7124AEAE7114AF0E74FF48076FE
:10262000A168E568238B2B439BB20B439BB23343DA
:1026300043F400630343D36171E70026F0E7012010
:10264000704700BF0030014008C30008C0CE020040
:1026500065260008CDCCCCCC81280008003800408D
:102660000034004010B584B00446026893680393B8
:1026700090F84130DBB2042B06D094F84130DBB245
:10268000032B2ED004B010BD039B13F0010F03D019
:10269000536813F0400F21D1039B13F0400FECD08F
:1026A00023685A6812F0200FE7D05A6822F06002BF
:1026B0001204120C5A60002301932368DA68019215
:1026C0009B680193019B012384F84130636C43F0C4
:1026D000020363642046FFF77BFECEE7FFF75CFE54
:1026E000DAE7039B13F0020F04D023685B6813F052
:1026F000800F1FD1039B13F0080FC3D023685A68C3
:1027000012F0200FBED05A6822F0A0021204120C60
:102710005A600023029323689B680293029B012363
:1027200084F84130636C43F0040363642046FFF790
:102730004FFEA7E72046FFF712FEDBE770470000D9
:1027400008B5E9B9436A9A1C426202681B88D360E3
:10275000438D013B9BB24385438D9BB24BB90268CD
:10276000536823F0A0031B041B0C5360438E9BB2E1
:1027700003B108BD012380F84130FFF7DFFFF8E720
:10278000436A9A1C42621A880168134B99421ED010
:102790004FF04023DA60438D013B9BB24385438D6C
:1027A0009BB2002BE5D102680B4B9A4212D04FF03E
:1027B0004022536823F0A0035360438E9BB2002B4A
:1027C000D7D1012380F84130FFF7B8FFD1E7A3F557
:1027D0008063DFE7014AECE7003800400034004046
:1027E00008B5E9B90368DA68C36A991CC1621A803E
:1027F000438E013B9BB24386438E9BB24BB902682A
:10280000536823F060031B041B0C5360438D9BB281
:1028100003B108BD012380F84130FFF78FFFF8E7CF
:102820000268154B9A4222D04FF04023DA68C36AFF
:10283000991CC1621A80438E013B9BB24386438E32
:102840009BB2002BE5D102680B4B9A4212D04FF09D
:102850004022536823F060035360438D9BB2002BEA
:10286000D7D1012380F84130FFF768FFD1E7A3F506
:102870008063DBE7014AECE70038004000340040A9
:1028800010B584B0044603689A6803927C4A934268
:102890005DD04FF040218A680292DA6902F44072FA
:1028A000B2F5007F04D0DA6912F4407F40F08180F5
:1028B000039A12F0020F03D05B6813F0800F48D127
:1028C000029B13F0010F09D022686D4B9A4245D04C
:1028D0004FF040235B6813F0400F42D1029B13F08E
:1028E000400F09D02268664B9A423FD04FF04023F8
:1028F0005A6812F0200F3CD1039B13F0080F24D02C
:1029000023685A6812F0200F1FD05A6822F0A002E4
:102910001204120C5A602268594B9A4247D04FF069
:102920004022536823F0600353600023019323681F
:102930009B680193019B012384F84130636C43F051
:10294000040363642046FFF743FD04B010BD4D4906
:10295000A1E700212046FFF7F3FEB1E7A3F580636E
:10296000B8E701212046FFF73BFFB7E7A3F58063F7
:10297000BEE75A6822F060025A602268536823F06A
:10298000A0031B041B0C5360002300932368DA6828
:1029900000929B680093009B012384F84130636C94
:1029A00043F0020363642046FFF712FDA4E7354AB3
:1029B000B7E7029B13F0020F03D04B6813F0800FB0
:1029C0004FD1039B13F0010F04D023685B6813F011
:1029D000400F4BD1039B13F0400F1ED023685A6861
:1029E00012F0200F19D05A6822F060021204120C63
:1029F0005A602268224B9A423DD04FF040225368E1
:102A000023F0A0035360012384F84130636C43F04A
:102A1000020363642046FFF7DBFC029B13F0080F00
:102A200093D02268164B9A4227D04FF040235A6821
:102A300012F0200F89D05A6822F0A0025A60226852
:102A4000536823F060031B041B0C5360012384F8BC
:102A50004130636C43F0040363642046FFF7B8FC25
:102A600073E701212046FFF76BFEAAE7002120460D
:102A7000FFF7B6FEAEE7034AC1E7A3F58063D6E7EA
:102A80000038004000340040002800F03B8270B560
:102A900082B0044603680F2B39D8236813F0010F66
:102AA0004DD063682BB1B3F5803F02D0B3F5A02FB2
:102AB00032D1A54B9B6803F00C03042B36D0A24BFC
:102AC0009B6803F00C03082B2BD06368B3F5803FA1
:102AD0005FD0B3F5A02F62D09B4B1A6822F48032EE
:102AE0001A601A6822F480221A606368002B60D092
:102AF000FEF73EFB0546944B1B6813F4003F1ED1C6
:102B0000FEF736FB401B6428F5D90320FFE1F821CE
:102B10008E4804F085F8C0E7FD218C4804F080F869
:102B2000C7E7894B5B6813F4800FCED0864B1B68D8
:102B300013F4003F03D06368002B00F0E5812368A5
:102B400013F0020F67D0E368012B41D823691F2BD4
:102B500044D87D4B9B6813F00C0F4AD07A4B9B688E
:102B600003F00C03082B3FD0E368002B77D0784BA1
:102B700001221A60FEF7FCFA0546734B1B6813F03E
:102B8000020F63D1FEF7F4FA401B0228F5D90320A7
:102B9000BDE16D4A136843F480331360A5E76A4BC7
:102BA0001A6842F480221A601A6842F480321A606D
:102BB0009BE7FEF7DDFA0546634B1B6813F4003F05
:102BC000BDD0FEF7D5FA401B6428F5D903209EE15D
:102BD00040F22F115D4804F023F8B7E74FF49871E5
:102BE0005A4804F01DF8B4E7574B5B6813F4800FA4
:102BF000BAD1554B1B6813F0020F04D0E368012BC8
:102C000001D0012083E1504A136823F0F8032169C1
:102C100043EAC1031360236813F0080F49D06369C6
:102C2000012B2ED8636993B34A4B01221A60FEF739
:102C30009FFA0546444B5B6F13F0020F39D1FEF744
:102C400097FA401B0228F5D9032060E13E4A136839
:102C500023F0F803216943EAC1031360DBE73C4B2F
:102C600000221A60FEF784FA0546374B1B6813F002
:102C7000020FD0D0FEF77CFA401B0228F5D90320C2
:102C800045E14FF4B871314803F0CAFFCAE7314B50
:102C900000221A60FEF76CFA05462B4B5B6F13F0AF
:102CA000020F06D0FEF764FA401B0228F5D9032074
:102CB0002DE1236813F0040F00F08780A368012B37
:102CC00001D9052B38D1204B1B6C13F0805F39D113
:102CD000002301931C4B1A6C42F080521A641B6C47
:102CE00003F080530193019B01251B4B1B6813F4D8
:102CF000807F33D0A368012B44D0052B48D0124BE2
:102D00001A6F22F001021A671A6F22F004021A6782
:102D1000A368002B46D0FEF72BFA06460A4B1B6F22
:102D200013F0020F4FD1FEF723FA801B41F28833D4
:102D30009842F3D90320EAE04FF4CE71034803F040
:102D40006FFFC0E70025D0E70038024040C300080D
:102D500000004742800E4742007000406E4A1368F0
:102D600043F480731360FEF703FA06466A4B1B6850
:102D700013F4807FBED1FEF7FBF9801B0228F5D942
:102D80000320C4E0654A136F43F001031367BFE7F4
:102D9000624B1A6F42F004021A671A6F42F0010286
:102DA0001A67B5E7FEF7E4F906465C4B1B6F13F0B4
:102DB000020F08D0FEF7DCF9801B41F288339842FD
:102DC000F3D90320A3E0002D3AD1A369022B3DD80B
:102DD000A369002B00F09A80504A926802F00C021E
:102DE000082A00F09680022B78D1E36913B1B3F57D
:102DF000800F31D1236A3F2B34D8636AC03BF02B5C
:102E000036D8A36A022B05D0042B03D0062B01D0A1
:102E1000082B33D1E36A023B0D2B35D8404B0022FF
:102E20001A60FEF7A5F905463C4B1B6813F0007FBE
:102E300030D0FEF79DF9401B0228F5D9032066E04B
:102E4000364A136C23F080531364BEE740F2DF115F
:102E5000344803F0E5FEBBE74FF4F471314803F06A
:102E6000DFFEC7E740F2E9112E4803F0D9FEC4E7C0
:102E70004FF4F5712B4803F0D3FEC2E740F2EB119B
:102E8000284803F0CDFEC5E74FF4F671254803F05E
:102E9000C7FEC3E7E369226A1343626A43EA821307
:102EA000A26A5208013A43EA0243E26A43EA026331
:102EB0001A4A53601A4B01221A60FEF759F9044668
:102EC000164B1B6813F0007F06D1FEF751F9001B6B
:102ED0000228F5D903201AE0002018E0104B002248
:102EE0001A60FEF745F904460C4B1B6813F0007F8F
:102EF00006D0FEF73DF9001B0228F5D9032006E0B5
:102F0000002004E001207047012000E0002002B012
:102F100070BD0120FBE700BF007000400038024098
:102F20006000474240C30008324B9B6803F00C032B
:102F3000042B5CD0082B01D02F4870472DE9F04BB3
:102F40002C4B5A6802F03F025B6813F4800F2BD0C1
:102F5000284B5B68C3F388131E4600275C010025DD
:102F6000E41A65EB0705A90141EA9461A001001B81
:102F700061EB0501CB0043EA5073C400A01943EB99
:102F800007014B0243EAD05344022046194600236E
:102F9000FDF736F9174B5B68C3F3014301335B0060
:102FA000B0FBF3F0BDE8F08B124B5B68C3F3881302
:102FB0001E4600275C010025E41A65EB0705A90100
:102FC00041EA9461A001001B61EB0501CB0043EADB
:102FD0005073C400A01943EB07018B0243EA9053DE
:102FE0008402204619460023FDF70AF9D2E7034878
:102FF000704700BF003802400024F40000127A003D
:10300000002800F0F98070B504460D460368013BC6
:103010000E2B11D8072D15D8794B1B6803F00F0321
:10302000AB4215D2EBB2764A1370136803F00F036C
:10303000AB420DD0012070BD4FF41471714803F004
:10304000EFFDE7E740F251216E4803F0E9FDE3E7C9
:10305000236813F0020F29D013F0040F04D06A4A3A
:10306000936843F4E0539360236813F0080F04D08F
:10307000654A936843F460439360A3687BB1802BF7
:103080000DD0902B0BD0A02B09D0B02B07D0C02B8C
:1030900005D0D02B03D0E02B01D0F02B33D15A4AEE
:1030A000936823F0F003A1680B439360236813F047
:1030B000010F42D06368032B2BD86368012B2ED0FD
:1030C0009A1E012A32D9504A126812F0020F00F0FB
:1030D00095804D498A6822F0030213438B60FEF706
:1030E00047F80646484B9B6803F00C036268B3EB55
:1030F000820F22D0FEF73CF8801B41F288339842C1
:10310000F0D9032097E74FF41D713E4803F088FD86
:10311000C5E740F27B213B4803F082FDCDE73A4A08
:10312000126812F4003FD4D1012084E7364A1268B5
:1031300012F0007FCDD101207DE7314B1B6803F0F9
:103140000F03AB4209D9EAB22D4B1A701B6803F08A
:103150000F03AB4201D001206DE7236813F0040F89
:1031600014D0E3685BB1B3F5805F08D0B3F5A05F1E
:1031700005D0B3F5C05F02D0B3F5E05F30D1224A8D
:10318000936823F4E053E1680B439360236813F0E2
:10319000080F15D023695BB1B3F5805F08D0B3F594
:1031A000A05F05D0B3F5C05F02D0B3F5E05F1DD1DD
:1031B000154A936823F46043216943EAC10393608D
:1031C000FFF7B2FE104B9B68C3F303130F4AD35CA7
:1031D000D8400F4B18600020FDF780FF00202AE741
:1031E00040F2B921074803F01BFDC8E74FF43071E6
:1031F000044803F015FDDBE70120704701201AE7C2
:10320000003C024040C300080038024008C20008E9
:1032100028000020014B1868704700BF28000020DC
:1032200008B5FFF7F7FF044B9B68C3F38223034AFB
:10323000D35CD84008BD00BF0038024018C2000867
:1032400030B583B004460368013B0E2B21D82368B8
:1032500013F0050F51D0E368023B052B1FD8A3687C
:10326000C03BF02B21D86368023B3D2B23D8A04BF9
:1032700000221A60FDF77CFF05469E4B1B6813F089
:10328000006F1ED0FDF774FF401B0228F5D9032004
:103290000DE140F6DD11984803F0C2FCD7E740F697
:1032A000E411954803F0BCFCD9E740F6E5119248DB
:1032B00003F0B6FCD7E740F6E7118F4803F0B0FC07
:1032C000D5E76368A26843EA8213E26843EA0273BF
:1032D000884AC2F88430864B01221A60FDF748FF05
:1032E0000546844B1B6813F0006F06D1FDF740FFC5
:1032F000401B0228F5D90320D9E0236813F0020F00
:1033000000F0CD802369B3F5807F7ED0B3F5007FD8
:103310007BD07A4A934278D002F58032934274D0BF
:1033200002F58032934270D002F5803293426CD025
:1033300002F58032934268D002F58032934264D025
:1033400002F58032934260D002F5803293425CD025
:1033500002F58032934258D002F58032934254D025
:1033600002F58032934250D002F5803293424CD025
:1033700002F58032934248D002F58032934244D025
:1033800002F58032934240D002F5803293423CD025
:1033900002F58032934238D002F58032934234D025
:1033A00002F58032934230D002F5803293422CD025
:1033B00002F58032934228D002F58032934224D025
:1033C00002F58032934220D002F5803293421CD025
:1033D00002F58032934218D002F58032934214D025
:1033E00002F58032934210D002F5803293420CD025
:1033F00002F58032934208D002F58032934204D025
:1034000040F616213C4803F00BFC00230193394B96
:103410001A6C42F080521A641B6C03F080530193C3
:10342000019B374A136843F480731360FDF7A0FED5
:103430000546334B1B6813F4807F06D1FDF798FED9
:10344000401B0228F5D9032031E02A4B1B6F13F4EF
:10345000407312D0226902F440729A420DD0254B7B
:103460001A6F22F44072274901200860002008608A
:103470001A671B6F13F0010F1BD1236903F440720D
:10348000B2F5407F26D01B4A936823F4F81393606B
:1034900018490B6F2269C2F30B0213430B672368B1
:1034A00013F0080F21D0227D174B1A60002003B0C3
:1034B00030BDFDF75DFE05460E4B1B6F13F0020F8E
:1034C000DBD1FDF755FE401B41F288339842F3D91A
:1034D0000320ECE707498A6822F4F81223F07043CE
:1034E00023F4407313438B60D2E70020DFE700BF73
:1034F000680047420038024078C300080003020019
:1035000000700040400E4742E011474201282CD194
:10351000184B9B6813F4000303D0012B27D11648E6
:103520007047144B5B6813F4800F15D0114BD3F820
:10353000843003F03F031148B0FBF3F00D4AD2F89A
:103540008430C3F3881300FB03F0D2F88430C3F354
:103550000273B0FBF3F07047064BD3F8843003F0EE
:103560003F030748B0FBF3F0E8E700207047002076
:10357000704700BF003802400080BB0000127A0094
:103580000024F400002800F0C88010B50446036849
:10359000634A934214D0A2F57842934210D002F5C8
:1035A000806293420CD002F57842934208D002F533
:1035B000E052934204D04FF487715A4803F030FB35
:1035C000636813B1B3F5827F6BD1A3682BB1B3F5F8
:1035D000806F02D0B3F5004F69D1E368B3F5006F97
:1035E00001D0002B69D1A369B3F5007F03D013B1DB
:1035F000B3F5802F67D1E3696BB1082B0BD0102B8B
:1036000009D0182B07D0202B05D0282B03D0302B26
:1036100001D0382B5DD1236A0BB1802B5FD1636A57
:103620000BB1102B61D1636A33B923690BB1022B43
:1036300061D16369012B64D80023A36294F85130EF
:10364000002B64D0022384F851302268136823F0E1
:10365000400313606368A2681343E268134322695E
:10366000134362691343A26902F400721343E269CF
:103670001343226A1343A16A22680B431360638BCE
:1036800003F00403616A22680B4353602268D36924
:1036900023F40063D36100206065012384F8513076
:1036A00010BD40F20F111F4803F0BAFA8DE74FF436
:1036B00088711C4803F0B4FA8FE740F211111948E1
:1036C00003F0AEFA8FE74FF48971164803F0A8FAB9
:1036D00091E740F21311134803F0A2FA9BE74FF46D
:1036E0008A71104803F09CFA99E740F215110D48D1
:1036F00003F096FA97E74FF48C710A4803F090FABA
:1037000097E740F21911074803F08AFA94E784F822
:103710005030204603F0AAFA94E70120704700BF1A
:1037200000300140B4C3000870B4036A23F0010301
:103730000362036A4268846924F073040D6845EAF1
:10374000040623F002048B6823430B4DA84206D0E5
:10375000426086614A684263036270BC704723F02E
:103760000803CC68234323F0040322F440724C691D
:1037700014438A692243EBE70000014010B4036A56
:10378000046A24F001040462846924F0F00444EA29
:10379000021223F00A030B43826103625DF8044BBB
:1037A000704730B4046A24F0100404628469056A26
:1037B00024F4407444EA022222F470421B039BB2B8
:1037C0001A4325F0A005090101F0A00129438261F7
:1037D000016230BC704710B4036A23F01003036227
:1037E0008469036A24F4704444EA023223F0A0039B
:1037F00043EA0113826103625DF8044B704730B401
:10380000046A24F480740462C469056A24F0030421
:10381000224322F0F0021B01DBB21A4325F420659B
:10382000090201F420612943C261016230BC704782
:1038300030B4046A24F480540462C469056A24F430
:10384000407444EA022222F470421B039BB21A43E2
:1038500025F42045090301F420412943C261016296
:1038600030BC7047836823F0700341F007011943AF
:103870008160704710B4846824F47F4442EA0323D3
:103880000B43234383605DF8044B70472DE9F041FF
:1038900004460E46036A23F480730362056A476890
:1038A000C36923F073080B6843EA080825F4007520
:1038B0008B6845EA03251D4B984207D06760C4F822
:1038C0001C807368E3632562BDE8F081CB680BB1AF
:1038D000082B19D1B369B3F5007F00D0D3B9736950
:1038E000B3F5807F00D0DBB925F40065F36845EAC5
:1038F000032525F4806527F44057736947EA0317C9
:10390000B36947EA0317D9E741F21731084803F0D2
:1039100087F9DFE741F21831054803F081F9DEE766
:1039200041F21931024803F07BF9DDE70000014064
:10393000ECC300082DE9F04104460F46036A23F466
:1039400080530362056AD0F80480C66926F4E6460F
:103950000B6846EA032625F400558B6845EA0335D3
:103960000D4B984207D0C4F80480E6617B6823645D
:103970002562BDE8F0814B69B3F5807F00D02BB99B
:1039800028F480487B6948EA8318ECE741F25D310E
:10399000024803F045F9F3E700000140ECC30008DA
:1039A00038B505460C4601688A6822F070026368E3
:1039B000134323F00703226813438B606368302BA3
:1039C00000F07E813ED9502B00F0B3805FD9602B90
:1039D00000F0F180702B34D10368B74A934213D0C2
:1039E000B3F1804F10D0A2F57C4293420CD002F587
:1039F0008062934208D002F58062934204D041F283
:103A00009431AE4803F00CF9E36843B1B3F5805F3D
:103A100005D0B3F5005F02D0B3F5405F71D1A36864
:103A2000B3F5004F04D01BB1022B01D00A2B6ED18D
:103A300023690F2B71D82369A268E1682868FFF712
:103A400019FF38BD102B00F0F080202B00F0108102
:103A5000002BF6D10368984A9342F2D0B3F1804F1D
:103A6000EFD0A2F57C429342EBD002F58062934204
:103A7000E7D002F580629342E3D002F59A32934296
:103A8000DFD041F2D5318D4803F0CAF8D9E7402B99
:103A9000D7D10368884A93421FD0B3F1804F1CD01E
:103AA000A2F57C42934218D002F58062934214D072
:103AB00002F58062934210D002F59A3293420CD004
:103AC00002F58062934208D002F58062934204D0EE
:103AD00041F2A331794803F0A3F823690F2B22D8D0
:103AE0002B68196A1A6A22F001021A622A6893691D
:103AF00023F0F003206943EA001393612B681962F5
:103B00009FE741F295316D4803F08AF887E741F26B
:103B100096316A4803F084F88AE741F297316748A2
:103B200003F07EF887E741F2A431644803F078F8A7
:103B3000D6E70368604A93421FD0B3F1804F1CD090
:103B4000A2F57C42934218D002F58062934214D0D1
:103B500002F58062934210D002F59A3293420CD063
:103B600002F58062934208D002F58062934204D04D
:103B700041F2B931514803F053F8A368B3F5004F4F
:103B800004D01BB1022B01D00A2B08D123690F2BC3
:103B90000BD82269A1682868FFF7F0FD51E741F2D0
:103BA000BA31464803F03CF8F0E741F2BB314348F4
:103BB00003F036F8EDE703683F4A934217D0B3F1BC
:103BC000804F14D0A2F57C42934210D002F580625F
:103BD00093420CD002F58062934208D002F59A32EB
:103BE000934204D041F2C731344803F019F8A36876
:103BF000B3F5004F04D01BB1022B01D00A2B08D122
:103C000023690F2B0BD82269A1682868FFF7E3FD11
:103C100017E741F2C831294803F002F8F0E741F212
:103C2000C931264802F0FCFFEDE70368224A9342BF
:103C30003FF407AFB3F1804F3FF403AFA2F57C42EE
:103C400093423FF4FEAE02F5806293423FF4F9AE38
:103C500002F5806293423FF4F4AE02F59A32934249
:103C60003FF4EFAE41F2DC31144802F0D9FFE8E650
:103C70000368114A93423FF4E4AEB3F1804F3FF43E
:103C8000E0AEA2F57C4293423FF4DBAE02F58062E7
:103C900093423FF4D6AE02F5806293423FF4D1AE38
:103CA00002F59A3293423FF4CCAE41F2E33103483D
:103CB00002F0B6FFC5E600BF00000140ECC30008FB
:103CC0000368114A93423FF4BCAEB3F1804F3FF416
:103CD000B8AEA2F57C4293423FF4B3AE02F58062E7
:103CE00093423FF4AEAE02F5806293423FF4A9AE38
:103CF00002F59A3293423FF4A4AE41F2EA3103480E
:103D000002F08EFF9DE600BF00000140ECC30008FA
:103D1000704770477047000038B590F83830012B75
:103D200000F070820D460446012380F838300223EB
:103D300080F839300B68B3F5805F11D0B3F5005FC0
:103D40000ED06BB1102B0BD0202B09D0302B07D00D
:103D5000402B05D0502B03D0602B01D0702B4AD1C3
:103D60002268936823F47F4323F0770393602B68E2
:103D7000402B00F0BF8144D9702B00F0058100F288
:103D80008F80502B00F06481602B40F0F680236818
:103D9000AD4A934217D0B3F1804F14D0A2F57C42C4
:103DA000934210D002F5806293420CD002F58062FB
:103DB000934208D002F59A32934204D040F6C4717F
:103DC000A24802F02DFF6B68B3F5004F05D023B178
:103DD000022B02D00A2B40F08181EB680F2B00F2FE
:103DE0008381EA6869682068FFF7F5FC6021206834
:103DF000FFF738FDC1E040F67771944802F010FFFC
:103E0000AEE7102B00F0BC8126D9202B00F0D98121
:103E1000302B40F0B28023688B4A934217D0B3F125
:103E2000804F14D0A2F57C42934210D002F58062FC
:103E300093420CD002F58062934208D002F59A3288
:103E4000934204D040F6F271804802F0E9FE30213E
:103E50002068FFF707FD90E0002B40F08E8023687C
:103E6000794A934217D0B3F1804F14D0A2F57C4227
:103E7000934210D002F5806293420CD002F580622A
:103E8000934208D002F59A32934204D04FF47E61F7
:103E90006E4802F0C5FE00212068FFF7E3FC6CE0ED
:103EA000B3F5805F40D0B3F5005F66D12368664A02
:103EB000934213D0B3F1804F10D0A2F57C429342CD
:103EC0000CD002F58062934208D002F580629342E2
:103ED00004D040F6A4715D4802F0A2FE6B68B3F511
:103EE000004F05D023B1022B02D00A2B40F099805D
:103EF000AB684BB1B3F5805F06D0B3F5005F03D07C
:103F0000B3F5405F40F09380EB680F2B00F2958093
:103F1000EB686A68A9682068FFF7ACFC22689368C0
:103F200043F48043936028E02368474A93421FD0BC
:103F3000B3F1804F1CD0A2F57C42934218D002F519
:103F40008062934214D002F58062934210D002F551
:103F50009A3293420CD002F58062934208D002F567
:103F60008062934204D040F68371384802F058FED4
:103F70002268936823F007039360012384F83930A3
:103F8000002084F8380038BD23682F4A934213D0AC
:103F9000B3F1804F10D0A2F57C4293420CD002F5D1
:103FA0008062934208D002F58062934204D040F6CA
:103FB0008C71264802F034FE6B68B3F5004F04D0D4
:103FC0001BB1022B01D00A2B19D1AB6843B1B3F559
:103FD000805F05D0B3F5005F02D0B3F5405F14D128
:103FE000EB680F2B17D8EB686A68A9682068FFF7A1
:103FF00041FC2268936843F077039360BDE740F685
:104000008E71124802F00CFEDFE740F68F710F4808
:1040100002F006FEE4E74FF479610C4802F000FE7E
:10402000E1E740F6A671094802F0FAFD60E740F6C4
:10403000A771064802F0F4FD66E740F6A871034850
:1040400002F0EEFD64E700BF00000140ECC3000891
:1040500023686D4A93421FD0B3F1804F1CD0A2F564
:104060007C42934218D002F58062934214D002F54C
:104070008062934210D002F59A3293420CD002F53E
:104080008062934208D002F58062934204D040F6E9
:10409000B6715E4802F0C4FD6B68B3F5004F04D002
:1040A0001BB1022B01D00A2B0CD1EB680F2B0FD8C0
:1040B000EA6869682068FFF761FB50212068FFF714
:1040C000D1FB5AE740F6B971504802F0A9FDECE780
:1040D00040F6BA714D4802F0A3FDE9E740F6C7711A
:1040E0004A4802F09DFD78E640F6C871474802F064
:1040F00097FD76E62368444A93421FD0B3F1804F80
:104100001CD0A2F57C42934218D002F58062934203
:1041100014D002F58062934210D002F59A32934295
:104120000CD002F58062934208D002F5806293427F
:1041300004D040F6D271354802F072FD6B68B3F5D9
:10414000004F04D01BB1022B01D00A2B0CD1EB681D
:104150000F2B0FD8EA6869682068FFF70FFB402132
:104160002068FFF77FFB08E740F6D571274802F08B
:1041700057FDECE740F6D671244802F051FDE9E71F
:104180002368214A934217D0B3F1804F14D0A2F58F
:104190007C42934210D002F5806293420CD002F52B
:1041A0008062934208D002F59A32934204D040F6DE
:1041B000E671164802F034FD10212068FFF752FB2B
:1041C000DBE62368104A934217D0B3F1804F14D036
:1041D000A2F57C42934210D002F5806293420CD04B
:1041E00002F58062934208D002F59A32934204D0DD
:1041F00040F6EC71054802F013FD20212068FFF71E
:1042000031FBBAE60220BEE600000140ECC3000824
:1042100070B504460D460368304A934217D0B3F197
:10422000804F14D0A2F57C42934210D002F58062F8
:1042300093420CD002F58062934208D002F59A3284
:10424000934204D041F23201254802F0E9FC2B6888
:104250003BB1052B05D0042B03D0062B01D0072B37
:104260002DD16B686BB1102B0BD0202B09D0302BCC
:1042700007D0402B05D0502B03D0602B01D0702BE2
:1042800023D194F83830012B25D0012684F83860EA
:10429000022384F8393029462046FFF781FB226843
:1042A000D36823F04003D3602268D36823F48043AB
:1042B000D36084F83960002084F8380070BD41F282
:1042C0003301074802F0ACFCCBE741F2340104486B
:1042D00002F0A6FCD5E70220F0E700BF0000014095
:1042E000ECC3000890F83830012B00F0928010B534
:1042F0000446012380F838300C2900F28880DFE87A
:1043000001F00786868631868686508686866B0013
:104310000368414A93421FD0B3F1804F1CD0A2F5ED
:104320007C42934218D002F58062934214D002F589
:104330008062934210D002F59A3293420CD002F57B
:104340008062934208D002F58062934204D041F229
:104350008401324802F064FC2368586B002384F81F
:10436000383010BD03682C4A934217D0B3F1804F08
:1043700014D0A2F57C42934210D002F580629342A1
:104380000CD002F58062934208D002F59A32934233
:1043900004D041F28E01214802F042FC2368986B60
:1043A000DCE703681C4A934213D0B3F1804F10D06E
:1043B000A2F57C4293420CD002F58062934208D071
:1043C00002F58062934204D041F29901134802F051
:1043D00027FC2368D86BC1E703680F4A934213D0C8
:1043E000B3F1804F10D0A2F57C4293420CD002F57D
:1043F0008062934208D002F58062934204D041F279
:10440000A401064802F00CFC2368186CA6E7002003
:10441000A4E70220704700BF00000140ECC3000881
:1044200070477047704710B5044603681A6912F068
:10443000020F11D0DA6812F0020F0DD06FF00202F5
:104440001A610123037603689B6913F0030F70D090
:1044500002F056FA0023237623681A6912F0040F3B
:1044600012D0DA6812F0040F0ED06FF004021A6155
:104470000223237623689B6913F4407F5FD0204694
:1044800002F03EFA0023237623681A6912F0080F1F
:1044900012D0DA6812F0080F0ED06FF008021A611D
:1044A000042323762368DB6913F0030F4ED02046E4
:1044B00002F026FA0023237623681A6912F0100FFF
:1044C00012D0DA6812F0100F0ED06FF010021A61DD
:1044D000082323762368DB6913F4407F3DD0204610
:1044E00002F00EFA0023237623681A6912F0010FF6
:1044F00003D0DA6812F0010F36D123681A6912F07E
:10450000800F03D0DA6812F0800F34D123681A6963
:1045100012F0400F03D0DA6812F0400F32D1236856
:104520001A6912F0200F03D0DA6812F0200F30D190
:1045300010BDFFF775FF2046FFF773FF8AE720469F
:10454000FFF76EFF2046FFF76CFF9BE72046FFF763
:1045500067FF2046FFF765FFACE72046FFF760FFE7
:104560002046FFF75EFFBDE76FF001021A612046AB
:1045700002F0AAF9C1E76FF080021A61204600F04C
:1045800086FEC3E76FF040021A612046FFF74AFF3C
:10459000C5E76FF020021A61204600F077FEC7E7FA
:1045A0000368234A90420ED0B0F1804F0BD0A2F5A1
:1045B0007C42904207D002F58062904203D002F51F
:1045C0008062904203D123F070034A681343184A73
:1045D00090421AD0B0F1804F17D0A2F57C429042A1
:1045E00013D002F5806290420FD002F580629042B3
:1045F0000BD002F59A32904207D002F580629042C9
:1046000003D002F58062904203D123F44073CA685C
:10461000134303608B68C3620B688362044B984248
:1046200002D00123436170470B690363F9E700BFC0
:1046300000000140002855D010B5044603682A4AFE
:1046400093421ED0B3F1804F1BD0A2F57C4293421F
:1046500017D002F58062934213D002F58062934234
:104660000FD002F59A3293420BD002F5806293424A
:1046700007D002F58062934203D0D7211B4802F095
:10468000CFFAA3683BB1102B05D0202B03D0402BD1
:1046900001D0602B16D123692BB1B3F5807F02D0F6
:1046A000B3F5007F13D194F83930ABB1022384F80D
:1046B0003930211D2068FFF773FF012384F839305A
:1046C000002010BDD821094802F0AAFAE3E7D92159
:1046D000064802F0A5FAE6E784F83830204602F0F2
:1046E000F5FBE3E70120704700000140ECC3000840
:1046F000002858D010B5044603682C4A93421FD0B6
:10470000B3F1804F1CD0A2F57C42934218D002F541
:104710008062934214D002F58062934210D002F579
:104720009A3293420CD002F58062934208D002F58F
:104730008062934204D040F2F1311D4802F070FAD9
:10474000A3683BB1102B05D0202B03D0402B01D008
:10475000602B16D123692BB1B3F5807F02D0B3F55E
:10476000007F14D194F83930BBB1022384F839307A
:10477000211D2068FFF714FF012384F83930002041
:1047800010BD40F2F2310A4802F04AFAE2E740F284
:10479000F331074802F044FAE4E784F83830204661
:1047A000FFF7B6FAE1E70120704700BF00000140C3
:1047B000ECC30008002858D010B5044603682C4A02
:1047C00093421FD0B3F1804F1CD0A2F57C4293429C
:1047D00018D002F58062934214D002F580629342B1
:1047E00010D002F59A3293420CD002F580629342C7
:1047F00008D002F58062934204D040F2F4511D4883
:1048000002F00EFAA3683BB1102B05D0202B03D089
:10481000402B01D0602B16D123692BB1B3F5807FDB
:1048200002D0B3F5007F14D194F83930BBB1022324
:1048300084F83930211D2068FFF7B2FE012384F887
:104840003930002010BD40F2F5510A4802F0E8F975
:10485000E2E740F2F651074802F0E2F9E4E784F8B3
:1048600038302046FFF755FAE1E70120704700BFD6
:1048700000000140ECC3000800286BD038B50446A6
:104880000D460368344A93421FD0B3F1804F1CD0C9
:10489000A2F57C42934218D002F58062934214D074
:1048A00002F58062934210D002F59A3293420CD006
:1048B00002F58062934208D002F58062934204D0F0
:1048C00040F2D671254802F0ABF9A3683BB1102B3A
:1048D00005D0202B03D0402B01D0602B22D123699F
:1048E0002BB1B3F5807F02D0B3F5007F20D1082D26
:1048F00000D01DBB94F8393033B3022384F839302B
:10490000211D2068FFF74CFE2268136823F008037E
:104910001360236819680D431D60012384F8393042
:10492000002038BD40F2D7710C4802F079F9D6E783
:104930004FF4FB61094802F073F9D8E740F2D971EE
:10494000064802F06DF9D5E784F838302046FFF7C5
:10495000E1F9D2E70120704700000140ECC30008F4
:1049600070B4046A24F0010404628469056A164E76
:10497000B04217D0B0F1804F14D0A6F57C46B042BB
:1049800010D006F58066B0420CD006F58066B042C5
:1049900008D006F59A36B04204D024F0030242F063
:1049A000010202E024F00304224322F0F0021B0182
:1049B000DBB2134325F00A0201F00A0111438361BF
:1049C000016270BC704700BF0000014070B5044632
:1049D0000D46164603687E4A93421FD0B3F1804FBE
:1049E0001CD0A2F57C42934218D002F5806293421B
:1049F00014D002F58062934210D002F59A329342AD
:104A00000CD002F58062934208D002F58062934296
:104A100004D040F6E5316F4802F002F92B681BB173
:104A2000022B01D00A2B4AD16B68013B022B4CD8D8
:104A3000AB682BB1042B03D0082B01D00C2B4AD12F
:104A4000EB680F2B4DD894F83830012B00F0BD8067
:104A5000012384F83830022384F83930002E46D000
:104A6000042E5BD0082E00F087802368584A9342BA
:104A700013D0B3F1804F10D0A2F57C4293420CD0FA
:104A800002F58062934208D002F58062934204D01E
:104A90004FF442614F4802F0C3F8EB686A68296836
:104AA0002068FEF7C5FE2268D36923F44063D36112
:104AB0002268D369A96843EA0123D36127E040F65D
:104AC000E631444802F0ACF8AEE740F6E731414841
:104AD00002F0A6F8ACE740F6E8313E4802F0A0F854
:104AE000AEE740F6E9313B4802F09AF8ABE7EB68F5
:104AF0006A6829682068FFF733FF2268936923F00A
:104B00000C03936122689369A9680B4393610123A5
:104B100084F83930002084F8380070BD23682C4AAE
:104B2000934217D0B3F1804F14D0A2F57C42934248
:104B300010D002F5806293420CD002F5806293425D
:104B400008D002F59A32934204D04FF440612148D4
:104B500002F066F8EB686A6829682068FEF721FEB3
:104B60002268936923F44063936122689369A9687A
:104B700043EA01239361CAE72368154A934213D09D
:104B8000B3F1804F10D0A2F57C4293420CD002F5D5
:104B90008062934208D002F58062934204D04FF4C1
:104BA00041610C4802F03CF8EB686A6829682068AB
:104BB000FEF725FE2268D36923F00C03D361226837
:104BC000D369A9680B43D361A1E70220A5E700BF21
:104BD00000000140ECC300082DE9F04104460F46F7
:104BE000036A23F010030362056AD0F80480866923
:104BF00026F4E6460B6846EA032625F020058B6876
:104C000045EA0315124B984207D0C4F80480A66108
:104C10007B68A3632562BDE8F081CB680BB1082BEC
:104C20000FD125F08005FB6845EA031525F0400506
:104C300028F440687B6948EA8308BB6948EA83082E
:104C4000E3E741F20521034801F0EAFFE9E700BF8D
:104C500000000140ECC3000890F83830012B00F050
:104C60000B8170B516460D460446012380F8383096
:104C70003AB1042A05D0082A03D00C2A01D0182AF8
:104C80001AD12B68602B01D0702B1BD1AB680BB1F4
:104C9000022B1DD12B690BB1042B1FD1022384F8E9
:104CA00039300C2E57D8DFE806F01F5656565D56A1
:104CB00056568E565656BA0040F648416F4801F097
:104CC000AFFFDEE740F649416C4801F0A9FFDDE7A0
:104CD00040F64A41694801F0A3FFDBE740F64B414B
:104CE000664801F09DFFD9E72368654A93421FD0CB
:104CF000B3F1804F1CD0A2F57C42934218D002F54C
:104D00008062934214D002F58062934210D002F583
:104D10009A3293420CD002F58062934208D002F599
:104D20008062934204D040F65341544801F078FF2A
:104D300029462068FEF7F8FC2268936943F00803CF
:104D400093612268936923F0040393612268936955
:104D500029690B439361012384F83930002084F8DA
:104D6000380070BD2368464A934217D0B3F1804F94
:104D700014D0A2F57C42934210D002F58062934297
:104D80000CD002F58062934208D002F59A32934229
:104D900004D040F66241394801F042FF29462068BC
:104DA000FFF71AFF2268936943F400639361226856
:104DB000936923F48063936122689369296943EAC4
:104DC00001239361C7E723682D4A934213D0B3F1BF
:104DD000804F10D0A2F57C4293420CD002F5806245
:104DE000934208D002F58062934204D040F67141AC
:104DF000224801F015FF29462068FEF747FD22688A
:104E0000D36943F00803D3612268D36923F0040314
:104E1000D3612268D36929690B43D3619BE7236877
:104E2000174A934213D0B3F1804F10D0A2F57C42C1
:104E300093420CD002F58062934208D002F5806262
:104E4000934204D04FF448610C4801F0E9FE294632
:104E50002068FEF76FFD2268D36943F40063D361D5
:104E60002268D36923F48063D3612268D3692969F6
:104E700043EA0123D3616EE702207047ECC30008C8
:104E80000000014070B504460D4616461E4B984280
:104E90001FD0B0F1804F1CD0A3F57C43984218D0AE
:104EA00003F58063984214D003F58063984210D0D4
:104EB00003F59A3398420CD003F58063984208D0EA
:104EC00003F58063984204D041F288210F4801F035
:104ED000A7FE65B1042D0AD0082D08D00C2D06D0F0
:104EE000182D04D041F28921084801F099FE0123D0
:104EF00003FA05F2236A23EA02032362236A06FA0D
:104F000005F51D43256270BD00000140ECC300089B
:104F100038B504460D460368244A93422CD0B3F1B9
:104F2000804F29D0A2F57C42934225D002F58062C1
:104F3000934221D002F5806293421DD01C4A9342D5
:104F400023D01C4A934225D01B4A934225D040F2DD
:104F500052411A4801F064FE012229462068FFF7F9
:104F600091FF2368114A93421AD02268136843F0D4
:104F700001031360002038BD002DEDD0042DEBD0CF
:104F8000082DE9D00C2DD9D1E6E7002DE4D0042D71
:104F9000D7D1E1E7002DDFD0D6E7002DDCD0D6E772
:104FA0005A6C42F400425A64DFE700BF000001403F
:104FB000004001400044014000480140ECC30008AB
:104FC00038B505460C460368304A934227D0B3F102
:104FD000804F24D0A2F57C42934220D002F580621B
:104FE00093421CD002F58062934218D0284A934223
:104FF0001ED0284A934220D0274A934220D040F224
:105000008B61264801F00CFE0C2C21D8DFE804F05F
:105010001B2020202C202020322020203800002C93
:10502000F2D0042CF0D0082CEED00C2CDED1EBE723
:10503000002CE9D0042CDCD1E6E7002CE4D0DBE73F
:10504000002CE1D0DBE72A68D36843F00203D36089
:10505000012221462868FFF715FF2A68136843F0EC
:1050600001031360002038BD2A68D36843F00403AD
:10507000D360EDE72A68D36843F00803D360E7E71D
:105080002A68D36843F01003D360E1E700000140D1
:10509000004001400044014000480140ECC30008CA
:1050A00038B504460D4603682E4A934213D0B3F137
:1050B000804F10D0A2F57C4293420CD002F5806262
:1050C000934208D002F58062934204D040F24A61D4
:1050D000254801F0A5FD2B686BB1102B0BD0202BC0
:1050E00009D0302B07D0402B05D0502B03D0602B9C
:1050F00001D0702B27D16B68802B00D04BBB94F86C
:105100003830012B2BD0012284F83820022384F878
:10511000393021684B6823F070034B6021684B687D
:10512000286803434B6021688B6823F080038B6001
:1051300021688B68686803438B6084F839200020FD
:1051400084F8380038BD40F24B61074801F068FD33
:10515000D1E740F24C61044801F062FDCFE7022044
:10516000F0E700BF0000014024C4000838B5044641
:105170000D460268434B9A4204D040F272614248A5
:1051800001F04EFD2B68B3F5006F01D0002B4DD11F
:105190006B68B3F5806F01D0002B4DD1AB6843B184
:1051A000B3F5807F05D0B3F5007F02D0B3F5407F23
:1051B00048D1EB68FF2B4BD82B69B3F5805F01D04A
:1051C000002B4BD16B6913B1B3F5005F4CD1AB69C8
:1051D000B3F5804F01D0002B4CD194F83830012B1F
:1051E0004ED0012384F83830EB6823F44073AA686A
:1051F000134323F480636A68134323F400632A682B
:10520000134323F480532A69134323F400536A6938
:10521000134323F48043AA69134323F40043134345
:1052200022685364002084F8380038BD40F273616E
:10523000154801F0F5FCABE740F27461124801F04B
:10524000EFFCABE740F275610F4801F0E9FCB0E715
:1052500040F276610C4801F0E3FCADE740F2776183
:10526000094801F0DDFCADE74FF4CF61064801F0DD
:10527000D7FCACE740F27961034801F0D1FCACE720
:105280000220D2E70000014024C4000870477047A4
:1052900084B010B5044603A880E80E00089B012BDB
:1052A00020D1A36B23F48033A363E36823F4840346
:1052B00023F04003E360E36823F44013E3600F9BB3
:1052C000012B0AD0204600F099F8069B012B14D040
:1052D0000020BDE8104004B07047E36843F4801339
:1052E000E360EFE7E36843F04003E360204600F04B
:1052F00085F84FF48033A363E7E7A36843F0060320
:10530000A360A36843F02003A360E1E7836843F050
:105310000103836000207047836823F001038360EA
:105320000020704708B5C36823F0C043C36001295B
:1053300009D019B9C36843F08043C3603220FBF73A
:105340001DFF002008BDC36843F00053C360F5E7AC
:10535000890141F02001016100230133054A934294
:1053600005D8026912F0200FF7D100207047032002
:10537000704700BF400D0300102303610023013379
:10538000054A934205D8026912F0100FF7D10020A8
:1053900070470320704700BF400D030070B49DF8B4
:1053A0000C4064B903339D0807E000EB023303F5BA
:1053B000805351F8046B1E600134AC42F5D30020D9
:1053C00070BC704703329208002393420CD210B491
:1053D00000F58054246841F8044B01339342F7D31D
:1053E00008465DF8044B704708467047426980697B
:1053F00010407047406900F00100704700230133FE
:105400000C4A934211D80269002AF8DA036943F082
:105410000103036100230133064A934207D802695E
:1054200012F0010FF7D100207047032070470320CE
:10543000704700BF400D030084B038B5044605A88E
:1054400080E80E0025460023C4F8003EA36B23F439
:105450008023A363A36B23F40023A363A36B43F410
:105460000013A363079B032B0ED0D4F8003423F062
:105470000403C4F8003410212046FFF769FF2046DA
:10548000FFF77AFF002213E0B4F1A04FEDD0D4F87B
:10549000003443F00403C4F80034ECE705EB421396
:1054A0004FF0FF31C3F808150021C3F80C15013285
:1054B000069B9342F2D80121204600F053F8C82001
:1054C000FBF75CFE0023A3614FF0FF336361B4F18F
:1054D000A04F17D04FF40073636203F18073A3628F
:1054E0000D4BC4F80031089B1BB9A36943F01003AE
:1054F000A361A269094B1343A3610020BDE83840B2
:1055000004B070478023636203F5C003A362044BB9
:10551000C4F80031E7E700BF0003E000080020A363
:10552000E000400010B400F58064D0F8003423F0AF
:105530000303C0F80034D0F8003401F00302134331
:10554000C0F80034012905D0022907D000205DF8F9
:10555000044B70474BF680336360F7E741F270739A
:105560006360F3E782B0D0F840340193019B23F0ED
:105570002E030193019B13F4805F01D101290CD00C
:10558000019B13F4805F05D021B9019B23F4805364
:10559000C0F84034002002B07047019B43F48053B0
:1055A000C0F84034ECE700F58060806880B2704756
:1055B000F0B49DF8144000EB411505F5A0664FF0DE
:1055C000FF37B760032C1CD8DFE804F0024D02154A
:1055D00040F29D47F76012F0800F07D1B0F1A04F65
:1055E0000FD0F76847F06007F7600AE0F76847F404
:1055F0008077F76005E040F29D67F76012F0800F5A
:105600002CD1D0F81864012707FA01F13143C0F812
:105610001814816941F0007181619B0503F0FE530C
:10562000D10201F4F0410B4352B202F400421343A1
:105630009DF81020022A21D000221343A20402F474
:1056400040221343BDF81820C2F30A021343C5F8E1
:105650000035032C15D00020F0BC7047F76847F4E4
:105660008077F760CDE740F22527F76012F0800FD2
:10567000C7D0F76847F4C077F760C2E74FF400324D
:10568000DBE7D5F8003543F00053C5F80035E2E715
:1056900080B58AB002AFF860B9601346FB71002391
:1056A0007B7700237B830023FB834FF480733B8352
:1056B00000237B61FB68B3F1A04F2AD0BB681B7944
:1056C000002B26D1FB79002B0BD1BB685B79012B1A
:1056D00007D1BB685B781946F86800F003FA00232D
:1056E00009E1FB79012B14D1BB685B785A01FB6897
:1056F000134403F5A063DB68BA6852785101FA6875
:105700000A4402F5A06223F06003D360BB68002264
:105710005A71BB681B69002B19D0BB681B69BA683A
:1057200012891344013BBA681289B3FBF2F3FB837D
:10573000FA8B3B8B9A420CD93B8BFB83FB8BBA6871
:10574000128902FB03F31A46BB681A6101E00123C8
:10575000FB83BB68DB78002B07D0FB8BBA68128910
:1057600002FB03F31A46BB681A61BB681B69C3F3EB
:105770001202FB8BDB041946614B0B401A43BB68DA
:105780009B7A5B0703F0C043B96849784801F96820
:10579000014401F5A06113430B61FB79002B0AD092
:1057A000BB68D968BB685B785A01FB68134403F592
:1057B000A0630A465A61FB6803F580639B6803F0A7
:1057C0000103002B0CBF01230023DBB27B77BB68F6
:1057D0005B785A01FB68134403F5A0631B68BA6841
:1057E00052785101FA680A4402F5A06223F000538E
:1057F0001360BB685B785A01FB68134403F5A06330
:105800001B687A7F52071046BA6852785101FA68CD
:105810000A4402F5A06203431360BB685B785A0137
:10582000FB68134403F5A0631B687B617B6923F06D
:1058300080437B617B6943F000437B61BB685B789D
:105840005A01FB68134403F5A0631A467B69136091
:10585000FB79002B4ED1BB68DB78002B4AD1BB68AB
:105860001B69002B46D0BB68DB79032B30D801A223
:1058700052F823F085580008A958000885580008F8
:10588000A9580008BB681B6903339B087B837A8B8C
:10589000FB68DB6A9BB29A421CD9FB689B6943F0A8
:1058A0002002FB689A6115E0BB681B6903339B0803
:1058B0007B837A8BFB6803F580631B699BB29A42FA
:1058C0000AD9FB689B6943F08062FB689A6103E038
:1058D00000BF02E000BF00E000BFBB68D968BB6842
:1058E0005A78BB681B6998B2002300930346F86896
:1058F000FFF754FD002318462037BD4680BD00BF8A
:105900000000F81F80B483B000AF78607B6803F5B7
:1059100080635B699BB218460C37BD465DF8047B1B
:10592000704780B485B000AF78600B46FB700023F1
:10593000FB60FB785A017B68134403F5A0631B6886
:105940009B0C03F00303002B0BD0FB785A017B6800
:10595000134403F5A0631B689B0C03F00303022BA5
:105960005CD1FB785A017B68134403F5A0631B6884
:10597000FA7851017A680A4402F5A06243F0804344
:1059800013607B68DB6A03F47F03002B33D1FB7861
:105990005A017B68134403F5A0631B68FA78510130
:1059A0007A680A4402F5A06223F000431360FB7892
:1059B0005A017B68134403F5A0631B68FA78510110
:1059C0007A680A4402F5A06243F000431360FB6862
:1059D0000133FB60FB68B3F57A7F1DD8FB785A0171
:1059E0007B68134403F5A0631B6803F00043B3F125
:1059F000004FECD06FE0FB785A017B68134403F54D
:105A0000A0631B68FA7851017A680A4402F5A06223
:105A100043F0004313605EE000BF5CE0FB785A0196
:105A20007B68134403F5A0631B68FA7851017A6818
:105A30000A4402F5A06243F0804313607B6803F5DB
:105A400080631B699BB2002B33D1FB785A017B68C2
:105A5000134403F5A0631B68FA7851017A680A447D
:105A600002F5A06223F000431360FB785A017B68C3
:105A7000134403F5A0631B68FA7851017A680A445D
:105A800002F5A06243F000431360FB680133FB6042
:105A9000FB68B3F57A7F1DD8FB785A017B68134405
:105AA00003F5A0631B6803F00043B3F1004FECD093
:105AB00011E0FB785A017B68134403F5A0631B686F
:105AC000FA7851017A680A4402F5A06243F0004373
:105AD000136000E000BF002318461437BD465DF890
:105AE000047B704780B485B000AF78600B46FB70D4
:105AF0000123FB730023BB60FB7BDB041A46154BC1
